{
  "_format": "hh-sol-artifact-1",
  "contractName": "Mimicry",
  "sourceName": "contracts/Mimicry.sol",
  "abi": [
    {
      "inputs": [],
      "stateMutability": "nonpayable",
      "type": "constructor"
    },
    {
      "inputs": [],
      "name": "CurrencyAlreadyAdded",
      "type": "error"
    },
    {
      "inputs": [],
      "name": "CurrencyLimitReached",
      "type": "error"
    },
    {
      "inputs": [],
      "name": "InvalidCurrency",
      "type": "error"
    },
    {
      "inputs": [],
      "name": "InvalidMarket",
      "type": "error"
    },
    {
      "inputs": [],
      "name": "InvalidSender",
      "type": "error"
    },
    {
      "inputs": [],
      "name": "MarketAlreadyAdded",
      "type": "error"
    },
    {
      "inputs": [],
      "name": "OnlyAdmin",
      "type": "error"
    },
    {
      "inputs": [],
      "name": "OnlyMarket",
      "type": "error"
    },
    {
      "inputs": [],
      "name": "PositionTokenExists",
      "type": "error"
    },
    {
      "inputs": [],
      "name": "PositionTokenNotSet",
      "type": "error"
    },
    {
      "anonymous": false,
      "inputs": [
        {
          "indexed": false,
          "internalType": "address",
          "name": "previousAdmin",
          "type": "address"
        },
        {
          "indexed": false,
          "internalType": "address",
          "name": "newAdmin",
          "type": "address"
        }
      ],
      "name": "AdminChanged",
      "type": "event"
    },
    {
      "anonymous": false,
      "inputs": [
        {
          "indexed": true,
          "internalType": "address",
          "name": "beacon",
          "type": "address"
        }
      ],
      "name": "BeaconUpgraded",
      "type": "event"
    },
    {
      "anonymous": false,
      "inputs": [
        {
          "indexed": true,
          "internalType": "address",
          "name": "tokenAddress",
          "type": "address"
        },
        {
          "indexed": false,
          "internalType": "address",
          "name": "currencyProviderAddress",
          "type": "address"
        }
      ],
      "name": "CurrencyAdded",
      "type": "event"
    },
    {
      "anonymous": false,
      "inputs": [
        {
          "indexed": true,
          "internalType": "address",
          "name": "tokenAddress",
          "type": "address"
        },
        {
          "indexed": false,
          "internalType": "address",
          "name": "currencyProviderAddress",
          "type": "address"
        }
      ],
      "name": "CurrencyProviderUpdated",
      "type": "event"
    },
    {
      "anonymous": false,
      "inputs": [
        {
          "indexed": false,
          "internalType": "bool",
          "name": "isActive",
          "type": "bool"
        }
      ],
      "name": "EmergencyBrakeChanged",
      "type": "event"
    },
    {
      "anonymous": false,
      "inputs": [
        {
          "indexed": false,
          "internalType": "uint8",
          "name": "version",
          "type": "uint8"
        }
      ],
      "name": "Initialized",
      "type": "event"
    },
    {
      "anonymous": false,
      "inputs": [
        {
          "indexed": false,
          "internalType": "address",
          "name": "marketAddress",
          "type": "address"
        },
        {
          "indexed": false,
          "internalType": "string",
          "name": "name",
          "type": "string"
        },
        {
          "indexed": false,
          "internalType": "string",
          "name": "metadataURI",
          "type": "string"
        }
      ],
      "name": "MarketAdded",
      "type": "event"
    },
    {
      "anonymous": false,
      "inputs": [
        {
          "indexed": true,
          "internalType": "address",
          "name": "previousOwner",
          "type": "address"
        },
        {
          "indexed": true,
          "internalType": "address",
          "name": "newOwner",
          "type": "address"
        }
      ],
      "name": "OwnershipTransferred",
      "type": "event"
    },
    {
      "anonymous": false,
      "inputs": [
        {
          "indexed": true,
          "internalType": "address",
          "name": "implementation",
          "type": "address"
        }
      ],
      "name": "Upgraded",
      "type": "event"
    },
    {
      "inputs": [
        {
          "internalType": "address",
          "name": "_admin",
          "type": "address"
        }
      ],
      "name": "addAdmin",
      "outputs": [],
      "stateMutability": "nonpayable",
      "type": "function"
    },
    {
      "inputs": [
        {
          "internalType": "address",
          "name": "_tokenAddress",
          "type": "address"
        },
        {
          "internalType": "address",
          "name": "_currencyProviderAddress",
          "type": "address"
        }
      ],
      "name": "addCurrency",
      "outputs": [],
      "stateMutability": "nonpayable",
      "type": "function"
    },
    {
      "inputs": [
        {
          "internalType": "contract IMarket",
          "name": "_market",
          "type": "address"
        }
      ],
      "name": "addMarket",
      "outputs": [],
      "stateMutability": "nonpayable",
      "type": "function"
    },
    {
      "inputs": [
        {
          "internalType": "address",
          "name": "",
          "type": "address"
        }
      ],
      "name": "admins",
      "outputs": [
        {
          "internalType": "bool",
          "name": "",
          "type": "bool"
        }
      ],
      "stateMutability": "view",
      "type": "function"
    },
    {
      "inputs": [
        {
          "components": [
            {
              "internalType": "address",
              "name": "market",
              "type": "address"
            },
            {
              "internalType": "uint256[]",
              "name": "positionIds",
              "type": "uint256[]"
            }
          ],
          "internalType": "struct IMimicry.BatchPositions[]",
          "name": "batchPositions",
          "type": "tuple[]"
        }
      ],
      "name": "batchClosePositions",
      "outputs": [],
      "stateMutability": "nonpayable",
      "type": "function"
    },
    {
      "inputs": [
        {
          "internalType": "address",
          "name": "_sender",
          "type": "address"
        },
        {
          "internalType": "uint256",
          "name": "_tokenId",
          "type": "uint256"
        }
      ],
      "name": "burnMimic",
      "outputs": [],
      "stateMutability": "nonpayable",
      "type": "function"
    },
    {
      "inputs": [
        {
          "internalType": "address",
          "name": "_tokenAddress",
          "type": "address"
        },
        {
          "internalType": "uint256",
          "name": "_amount",
          "type": "uint256"
        }
      ],
      "name": "convertCurrencyToUSD",
      "outputs": [
        {
          "internalType": "uint256",
          "name": "",
          "type": "uint256"
        }
      ],
      "stateMutability": "view",
      "type": "function"
    },
    {
      "inputs": [
        {
          "internalType": "address",
          "name": "_owner",
          "type": "address"
        }
      ],
      "name": "createMimic",
      "outputs": [
        {
          "internalType": "uint256",
          "name": "",
          "type": "uint256"
        }
      ],
      "stateMutability": "nonpayable",
      "type": "function"
    },
    {
      "inputs": [
        {
          "internalType": "address",
          "name": "",
          "type": "address"
        }
      ],
      "name": "currencyProvidersMap",
      "outputs": [
        {
          "internalType": "address",
          "name": "",
          "type": "address"
        }
      ],
      "stateMutability": "view",
      "type": "function"
    },
    {
      "inputs": [
        {
          "internalType": "address",
          "name": "",
          "type": "address"
        }
      ],
      "name": "existingMarketsMap",
      "outputs": [
        {
          "internalType": "bool",
          "name": "",
          "type": "bool"
        }
      ],
      "stateMutability": "view",
      "type": "function"
    },
    {
      "inputs": [],
      "name": "getMarketInfos",
      "outputs": [
        {
          "components": [
            {
              "internalType": "address",
              "name": "marketAddress",
              "type": "address"
            },
            {
              "internalType": "string",
              "name": "name",
              "type": "string"
            },
            {
              "internalType": "string",
              "name": "metadataURI",
              "type": "string"
            }
          ],
          "internalType": "struct IMimicry.MarketInfo[]",
          "name": "",
          "type": "tuple[]"
        }
      ],
      "stateMutability": "view",
      "type": "function"
    },
    {
      "inputs": [],
      "name": "getMarkets",
      "outputs": [
        {
          "internalType": "contract IMarket[]",
          "name": "",
          "type": "address[]"
        }
      ],
      "stateMutability": "view",
      "type": "function"
    },
    {
      "inputs": [],
      "name": "getValidCurrenciesList",
      "outputs": [
        {
          "internalType": "address[]",
          "name": "",
          "type": "address[]"
        }
      ],
      "stateMutability": "view",
      "type": "function"
    },
    {
      "inputs": [],
      "name": "getValidCurrencyInfos",
      "outputs": [
        {
          "components": [
            {
              "internalType": "address",
              "name": "tokenAddress",
              "type": "address"
            },
            {
              "internalType": "address",
              "name": "currencyProviderAddress",
              "type": "address"
            },
            {
              "internalType": "string",
              "name": "name",
              "type": "string"
            },
            {
              "internalType": "string",
              "name": "symbol",
              "type": "string"
            },
            {
              "internalType": "uint8",
              "name": "decimals",
              "type": "uint8"
            }
          ],
          "internalType": "struct IMimicry.CurrencyInfo[]",
          "name": "",
          "type": "tuple[]"
        }
      ],
      "stateMutability": "view",
      "type": "function"
    },
    {
      "inputs": [],
      "name": "initialize",
      "outputs": [],
      "stateMutability": "nonpayable",
      "type": "function"
    },
    {
      "inputs": [],
      "name": "isEmergencyBrakeActive",
      "outputs": [
        {
          "internalType": "bool",
          "name": "",
          "type": "bool"
        }
      ],
      "stateMutability": "view",
      "type": "function"
    },
    {
      "inputs": [
        {
          "internalType": "address",
          "name": "_tokenAddress",
          "type": "address"
        }
      ],
      "name": "isValidCurrency",
      "outputs": [
        {
          "internalType": "bool",
          "name": "",
          "type": "bool"
        }
      ],
      "stateMutability": "view",
      "type": "function"
    },
    {
      "inputs": [
        {
          "internalType": "uint256",
          "name": "",
          "type": "uint256"
        }
      ],
      "name": "marketsList",
      "outputs": [
        {
          "internalType": "contract IMarket",
          "name": "",
          "type": "address"
        }
      ],
      "stateMutability": "view",
      "type": "function"
    },
    {
      "inputs": [],
      "name": "owner",
      "outputs": [
        {
          "internalType": "address",
          "name": "",
          "type": "address"
        }
      ],
      "stateMutability": "view",
      "type": "function"
    },
    {
      "inputs": [],
      "name": "positionToken",
      "outputs": [
        {
          "internalType": "contract PositionToken",
          "name": "",
          "type": "address"
        }
      ],
      "stateMutability": "view",
      "type": "function"
    },
    {
      "inputs": [],
      "name": "proxiableUUID",
      "outputs": [
        {
          "internalType": "bytes32",
          "name": "",
          "type": "bytes32"
        }
      ],
      "stateMutability": "view",
      "type": "function"
    },
    {
      "inputs": [
        {
          "internalType": "address",
          "name": "_admin",
          "type": "address"
        }
      ],
      "name": "removeAdmin",
      "outputs": [],
      "stateMutability": "nonpayable",
      "type": "function"
    },
    {
      "inputs": [],
      "name": "renounceOwnership",
      "outputs": [],
      "stateMutability": "nonpayable",
      "type": "function"
    },
    {
      "inputs": [
        {
          "internalType": "bool",
          "name": "_isEmergencyBrakeActive",
          "type": "bool"
        }
      ],
      "name": "setIsEmergencyBrakeActive",
      "outputs": [],
      "stateMutability": "nonpayable",
      "type": "function"
    },
    {
      "inputs": [
        {
          "internalType": "contract PositionToken",
          "name": "_positionToken",
          "type": "address"
        }
      ],
      "name": "setPositionToken",
      "outputs": [],
      "stateMutability": "nonpayable",
      "type": "function"
    },
    {
      "inputs": [
        {
          "internalType": "address",
          "name": "newOwner",
          "type": "address"
        }
      ],
      "name": "transferOwnership",
      "outputs": [],
      "stateMutability": "nonpayable",
      "type": "function"
    },
    {
      "inputs": [
        {
          "internalType": "address",
          "name": "_tokenAddress",
          "type": "address"
        },
        {
          "internalType": "address",
          "name": "_newProvider",
          "type": "address"
        }
      ],
      "name": "updateCurrencyProvider",
      "outputs": [],
      "stateMutability": "nonpayable",
      "type": "function"
    },
    {
      "inputs": [
        {
          "internalType": "address",
          "name": "newImplementation",
          "type": "address"
        }
      ],
      "name": "upgradeTo",
      "outputs": [],
      "stateMutability": "nonpayable",
      "type": "function"
    },
    {
      "inputs": [
        {
          "internalType": "address",
          "name": "newImplementation",
          "type": "address"
        },
        {
          "internalType": "bytes",
          "name": "data",
          "type": "bytes"
        }
      ],
      "name": "upgradeToAndCall",
      "outputs": [],
      "stateMutability": "payable",
      "type": "function"
    },
    {
      "inputs": [
        {
          "internalType": "uint256",
          "name": "",
          "type": "uint256"
        }
      ],
      "name": "validCurrenciesList",
      "outputs": [
        {
          "internalType": "address",
          "name": "",
          "type": "address"
        }
      ],
      "stateMutability": "view",
      "type": "function"
    }
  ],
  "bytecode": "0x60a06040523073ffffffffffffffffffffffffffffffffffffffff1660809073ffffffffffffffffffffffffffffffffffffffff168152503480156200004457600080fd5b50620000556200005b60201b60201c565b62000206565b600060019054906101000a900460ff1615620000ae576040517f08c379a0000000000000000000000000000000000000000000000000000000008152600401620000a590620001a9565b60405180910390fd5b60ff801660008054906101000a900460ff1660ff161015620001205760ff6000806101000a81548160ff021916908360ff1602179055507f7f26b83ff96e1f2b6a682f133852f6798a09c465da95921460cefb384740249860ff604051620001179190620001e9565b60405180910390a15b565b600082825260208201905092915050565b7f496e697469616c697a61626c653a20636f6e747261637420697320696e69746960008201527f616c697a696e6700000000000000000000000000000000000000000000000000602082015250565b60006200019160278362000122565b91506200019e8262000133565b604082019050919050565b60006020820190508181036000830152620001c48162000182565b9050919050565b600060ff82169050919050565b620001e381620001cb565b82525050565b6000602082019050620002006000830184620001d8565b92915050565b6080516147716200023e60003960008181610a1901528181610aa801528181610f8201528181611011015261120d01526147716000f3fe6080604052600436106101cd5760003560e01c806358bcf426116100f757806393e3063311610095578063e452d45011610064578063e452d45014610677578063e46b1daa146106a2578063ec2c9016146106cb578063f2fde38b146106f6576101cd565b806393e30633146105bd5780639e2839dc146105e6578063c43879d51461060f578063e1ccbd881461064c576101cd565b806370480275116100d1578063704802751461053b578063715018a6146105645780638129fc1c1461057b5780638da5cb5b14610592576101cd565b806358bcf426146104c05780635c3cb6b8146104e957806362cdaf8a14610512576101cd565b80633e2983951161016f5780634fb925581161013e5780634fb92558146104025780635037b7e91461043f57806351e33df61461046a57806352d1902d14610495576101cd565b80633e29839514610341578063429b62e51461036c578063446f7175146103a95780634f1ef286146103e6576101cd565b806330e1becc116101ab57806330e1becc146102615780633659cfe61461029e57806337366102146102c75780633bb8845814610304576101cd565b8063067bba6e146101d257806307cec00b146101fb5780631785f53c14610238575b600080fd5b3480156101de57600080fd5b506101f960048036038101906101f49190612fe5565b61071f565b005b34801561020757600080fd5b50610222600480360381019061021d9190613025565b610942565b60405161022f91906130b1565b60405180910390f35b34801561024457600080fd5b5061025f600480360381019061025a91906130cc565b610981565b005b34801561026d57600080fd5b50610288600480360381019061028391906130cc565b6109e4565b6040516102959190613108565b60405180910390f35b3480156102aa57600080fd5b506102c560048036038101906102c091906130cc565b610a17565b005b3480156102d357600080fd5b506102ee60048036038101906102e99190613025565b610ba0565b6040516102fb9190613108565b60405180910390f35b34801561031057600080fd5b5061032b60048036038101906103269190612fe5565b610bdf565b6040516103389190613132565b60405180910390f35b34801561034d57600080fd5b50610356610d10565b604051610363919061330e565b60405180910390f35b34801561037857600080fd5b50610393600480360381019061038e91906130cc565b610f40565b6040516103a0919061334b565b60405180910390f35b3480156103b557600080fd5b506103d060048036038101906103cb91906130cc565b610f60565b6040516103dd919061334b565b60405180910390f35b61040060048036038101906103fb919061349b565b610f80565b005b34801561040e57600080fd5b50610429600480360381019061042491906130cc565b6110bd565b604051610436919061334b565b60405180910390f35b34801561044b57600080fd5b50610454611155565b6040516104619190613518565b60405180910390f35b34801561047657600080fd5b5061047f61117b565b60405161048c91906135e2565b60405180910390f35b3480156104a157600080fd5b506104aa611209565b6040516104b7919061361d565b60405180910390f35b3480156104cc57600080fd5b506104e760048036038101906104e29190613676565b6112c2565b005b3480156104f557600080fd5b50610510600480360381019061050b91906136cf565b611396565b005b34801561051e57600080fd5b50610539600480360381019061053491906136fc565b611413565b005b34801561054757600080fd5b50610562600480360381019061055d91906130cc565b61172c565b005b34801561057057600080fd5b5061057961178f565b005b34801561058757600080fd5b506105906117a3565b005b34801561059e57600080fd5b506105a76118e9565b6040516105b49190613108565b60405180910390f35b3480156105c957600080fd5b506105e460048036038101906105df919061377a565b611913565b005b3480156105f257600080fd5b5061060d60048036038101906106089190613807565b611dbf565b005b34801561061b57600080fd5b50610636600480360381019061063191906130cc565b611f75565b6040516106439190613132565b60405180910390f35b34801561065857600080fd5b506106616120b0565b60405161066e919061334b565b60405180910390f35b34801561068357600080fd5b5061068c6120c3565b60405161069991906139af565b60405180910390f35b3480156106ae57600080fd5b506106c960048036038101906106c491906136fc565b612429565b005b3480156106d757600080fd5b506106e061269f565b6040516106ed9190613a7e565b60405180910390f35b34801561070257600080fd5b5061071d600480360381019061071891906130cc565b61272d565b005b60ca60003373ffffffffffffffffffffffffffffffffffffffff1673ffffffffffffffffffffffffffffffffffffffff16815260200190815260200160002060009054906101000a900460ff166107a2576040517f9e0125a900000000000000000000000000000000000000000000000000000000815260040160405180910390fd5b8173ffffffffffffffffffffffffffffffffffffffff1660cb60009054906101000a900473ffffffffffffffffffffffffffffffffffffffff1673ffffffffffffffffffffffffffffffffffffffff16636352211e836040518263ffffffff1660e01b81526004016108149190613132565b60206040518083038186803b15801561082c57600080fd5b505afa158015610840573d6000803e3d6000fd5b505050506040513d601f19601f820116820180604052508101906108649190613ab5565b73ffffffffffffffffffffffffffffffffffffffff16146108b1576040517fddb5de5e00000000000000000000000000000000000000000000000000000000815260040160405180910390fd5b60cb60009054906101000a900473ffffffffffffffffffffffffffffffffffffffff1673ffffffffffffffffffffffffffffffffffffffff166342966c68826040518263ffffffff1660e01b815260040161090c9190613132565b600060405180830381600087803b15801561092657600080fd5b505af115801561093a573d6000803e3d6000fd5b505050505050565b60c9818154811061095257600080fd5b906000526020600020016000915054906101000a900473ffffffffffffffffffffffffffffffffffffffff1681565b6109896127b1565b600060cf60008373ffffffffffffffffffffffffffffffffffffffff1673ffffffffffffffffffffffffffffffffffffffff16815260200190815260200160002060006101000a81548160ff02191690831515021790555050565b60ce6020528060005260406000206000915054906101000a900473ffffffffffffffffffffffffffffffffffffffff1681565b7f000000000000000000000000000000000000000000000000000000000000000073ffffffffffffffffffffffffffffffffffffffff163073ffffffffffffffffffffffffffffffffffffffff161415610aa6576040517f08c379a0000000000000000000000000000000000000000000000000000000008152600401610a9d90613b65565b60405180910390fd5b7f000000000000000000000000000000000000000000000000000000000000000073ffffffffffffffffffffffffffffffffffffffff16610ae561282f565b73ffffffffffffffffffffffffffffffffffffffff1614610b3b576040517f08c379a0000000000000000000000000000000000000000000000000000000008152600401610b3290613bf7565b60405180910390fd5b610b4481612886565b610b9d81600067ffffffffffffffff811115610b6357610b62613370565b5b6040519080825280601f01601f191660200182016040528015610b955781602001600182028036833780820191505090505b506000612891565b50565b60cc8181548110610bb057600080fd5b906000526020600020016000915054906101000a900473ffffffffffffffffffffffffffffffffffffffff1681565b6000610bea836110bd565b610c20576040517ff599342800000000000000000000000000000000000000000000000000000000815260040160405180910390fd5b60ce60008473ffffffffffffffffffffffffffffffffffffffff1673ffffffffffffffffffffffffffffffffffffffff16815260200190815260200160002060009054906101000a900473ffffffffffffffffffffffffffffffffffffffff1673ffffffffffffffffffffffffffffffffffffffff166389da7df8836040518263ffffffff1660e01b8152600401610cb89190613132565b60206040518083038186803b158015610cd057600080fd5b505afa158015610ce4573d6000803e3d6000fd5b505050506040513d601f19601f82011682018060405250810190610d089190613c2c565b905092915050565b60606000610d1c61269f565b90506000815167ffffffffffffffff811115610d3b57610d3a613370565b5b604051908082528060200260200182016040528015610d7457816020015b610d61612ea8565b815260200190600190039081610d595790505b50905060005b8251811015610f37576040518060600160405280848381518110610da157610da0613c59565b5b602002602001015173ffffffffffffffffffffffffffffffffffffffff168152602001848381518110610dd757610dd6613c59565b5b602002602001015173ffffffffffffffffffffffffffffffffffffffff166306fdde036040518163ffffffff1660e01b815260040160006040518083038186803b158015610e2457600080fd5b505afa158015610e38573d6000803e3d6000fd5b505050506040513d6000823e3d601f19601f82011682018060405250810190610e619190613d29565b8152602001848381518110610e7957610e78613c59565b5b602002602001015173ffffffffffffffffffffffffffffffffffffffff166303ee438c6040518163ffffffff1660e01b815260040160006040518083038186803b158015610ec657600080fd5b505afa158015610eda573d6000803e3d6000fd5b505050506040513d6000823e3d601f19601f82011682018060405250810190610f039190613d29565b815250828281518110610f1957610f18613c59565b5b60200260200101819052508080610f2f90613da1565b915050610d7a565b50809250505090565b60cf6020528060005260406000206000915054906101000a900460ff1681565b60ca6020528060005260406000206000915054906101000a900460ff1681565b7f000000000000000000000000000000000000000000000000000000000000000073ffffffffffffffffffffffffffffffffffffffff163073ffffffffffffffffffffffffffffffffffffffff16141561100f576040517f08c379a000000000000000000000000000000000000000000000000000000000815260040161100690613b65565b60405180910390fd5b7f000000000000000000000000000000000000000000000000000000000000000073ffffffffffffffffffffffffffffffffffffffff1661104e61282f565b73ffffffffffffffffffffffffffffffffffffffff16146110a4576040517f08c379a000000000000000000000000000000000000000000000000000000000815260040161109b90613bf7565b60405180910390fd5b6110ad82612886565b6110b982826001612891565b5050565b60008073ffffffffffffffffffffffffffffffffffffffff1660ce60008473ffffffffffffffffffffffffffffffffffffffff1673ffffffffffffffffffffffffffffffffffffffff16815260200190815260200160002060009054906101000a900473ffffffffffffffffffffffffffffffffffffffff1673ffffffffffffffffffffffffffffffffffffffff1614159050919050565b60cb60009054906101000a900473ffffffffffffffffffffffffffffffffffffffff1681565b606060cc8054806020026020016040519081016040528092919081815260200182805480156111ff57602002820191906000526020600020905b8160009054906101000a900473ffffffffffffffffffffffffffffffffffffffff1673ffffffffffffffffffffffffffffffffffffffff16815260200190600101908083116111b5575b5050505050905090565b60007f000000000000000000000000000000000000000000000000000000000000000073ffffffffffffffffffffffffffffffffffffffff163073ffffffffffffffffffffffffffffffffffffffff1614611299576040517f08c379a000000000000000000000000000000000000000000000000000000000815260040161129090613e5c565b60405180910390fd5b7f360894a13ba1a3210667c828492db98dca3e2076cc3735a920a3ca505d382bbc60001b905090565b6112ca6127b1565b600073ffffffffffffffffffffffffffffffffffffffff1660cb60009054906101000a900473ffffffffffffffffffffffffffffffffffffffff1673ffffffffffffffffffffffffffffffffffffffff1614611352576040517f1395754000000000000000000000000000000000000000000000000000000000815260040160405180910390fd5b8060cb60006101000a81548173ffffffffffffffffffffffffffffffffffffffff021916908373ffffffffffffffffffffffffffffffffffffffff16021790555050565b61139e6127b1565b80151560cd60009054906101000a900460ff16151514156113be57611410565b8060cd60006101000a81548160ff0219169083151502179055507f979e9759689bc12d5e45253b3c87766c6edc4ce50ba45ad6e04b9a1f8888427c81604051611407919061334b565b60405180910390a15b50565b61141b6127b1565b611424826110bd565b1561145b576040517fa89093b600000000000000000000000000000000000000000000000000000000815260040160405180910390fd5b600460cc805490501061149a576040517f9ab9ffcc00000000000000000000000000000000000000000000000000000000815260040160405180910390fd5b60008173ffffffffffffffffffffffffffffffffffffffff1663ad3677026040518163ffffffff1660e01b815260040160206040518083038186803b1580156114e257600080fd5b505afa1580156114f6573d6000803e3d6000fd5b505050506040513d601f19601f8201168201806040525081019061151a9190613c2c565b905060008273ffffffffffffffffffffffffffffffffffffffff166389da7df8670de0b6b3a76400006040518263ffffffff1660e01b815260040161155f9190613eb7565b60206040518083038186803b15801561157757600080fd5b505afa15801561158b573d6000803e3d6000fd5b505050506040513d601f19601f820116820180604052508101906115af9190613c2c565b905060008214806115c05750600081145b156115f7576040517ff599342800000000000000000000000000000000000000000000000000000000815260040160405180910390fd5b60cc849080600181540180825580915050600190039060005260206000200160009091909190916101000a81548173ffffffffffffffffffffffffffffffffffffffff021916908373ffffffffffffffffffffffffffffffffffffffff1602179055508260ce60008673ffffffffffffffffffffffffffffffffffffffff1673ffffffffffffffffffffffffffffffffffffffff16815260200190815260200160002060006101000a81548173ffffffffffffffffffffffffffffffffffffffff021916908373ffffffffffffffffffffffffffffffffffffffff1602179055508373ffffffffffffffffffffffffffffffffffffffff167fab35821bbd28c56e6dae71b4a4c73548cf0acef8a8241eae997d467cf2ba5e018460405161171e9190613108565b60405180910390a250505050565b6117346127b1565b600160cf60008373ffffffffffffffffffffffffffffffffffffffff1673ffffffffffffffffffffffffffffffffffffffff16815260200190815260200160002060006101000a81548160ff02191690831515021790555050565b6117976127b1565b6117a16000612a0e565b565b60008060019054906101000a900460ff161590508080156117d45750600160008054906101000a900460ff1660ff16105b8061180157506117e330612ad4565b1580156118005750600160008054906101000a900460ff1660ff16145b5b611840576040517f08c379a000000000000000000000000000000000000000000000000000000000815260040161183790613f44565b60405180910390fd5b60016000806101000a81548160ff021916908360ff160217905550801561187d576001600060016101000a81548160ff0219169083151502179055505b611885612af7565b61188d612b50565b80156118e65760008060016101000a81548160ff0219169083151502179055507f7f26b83ff96e1f2b6a682f133852f6798a09c465da95921460cefb384740249860016040516118dd9190613f9f565b60405180910390a15b50565b6000603360009054906101000a900473ffffffffffffffffffffffffffffffffffffffff16905090565b61191b6118e9565b73ffffffffffffffffffffffffffffffffffffffff163373ffffffffffffffffffffffffffffffffffffffff16148061199d575060cf60003373ffffffffffffffffffffffffffffffffffffffff1673ffffffffffffffffffffffffffffffffffffffff16815260200190815260200160002060009054906101000a900460ff165b6119d3576040517f4755657900000000000000000000000000000000000000000000000000000000815260040160405180910390fd5b60ca60008273ffffffffffffffffffffffffffffffffffffffff1673ffffffffffffffffffffffffffffffffffffffff16815260200190815260200160002060009054906101000a900460ff1615611a57576040517f8e3e108100000000000000000000000000000000000000000000000000000000815260040160405180910390fd5b600073ffffffffffffffffffffffffffffffffffffffff1660cb60009054906101000a900473ffffffffffffffffffffffffffffffffffffffff1673ffffffffffffffffffffffffffffffffffffffff161415611ae0576040517f8546691300000000000000000000000000000000000000000000000000000000815260040160405180910390fd5b3073ffffffffffffffffffffffffffffffffffffffff168173ffffffffffffffffffffffffffffffffffffffff1663a2a1079f6040518163ffffffff1660e01b815260040160206040518083038186803b158015611b3d57600080fd5b505afa158015611b51573d6000803e3d6000fd5b505050506040513d601f19601f82011682018060405250810190611b759190613ff8565b73ffffffffffffffffffffffffffffffffffffffff1614611bc2576040517f9db8d5b100000000000000000000000000000000000000000000000000000000815260040160405180910390fd5b600160ca60008373ffffffffffffffffffffffffffffffffffffffff1673ffffffffffffffffffffffffffffffffffffffff16815260200190815260200160002060006101000a81548160ff02191690831515021790555060c9819080600181540180825580915050600190039060005260206000200160009091909190916101000a81548173ffffffffffffffffffffffffffffffffffffffff021916908373ffffffffffffffffffffffffffffffffffffffff1602179055507f6205056e413f49b95096708fc4b08cde79e028b389a1c65b2c6523214765944b818273ffffffffffffffffffffffffffffffffffffffff166306fdde036040518163ffffffff1660e01b815260040160006040518083038186803b158015611ce557600080fd5b505afa158015611cf9573d6000803e3d6000fd5b505050506040513d6000823e3d601f19601f82011682018060405250810190611d229190613d29565b8373ffffffffffffffffffffffffffffffffffffffff166303ee438c6040518163ffffffff1660e01b815260040160006040518083038186803b158015611d6857600080fd5b505afa158015611d7c573d6000803e3d6000fd5b505050506040513d6000823e3d601f19601f82011682018060405250810190611da59190613d29565b604051611db49392919061405e565b60405180910390a150565b60005b82829050811015611f705760ca6000848484818110611de457611de3613c59565b5b9050602002810190611df691906140b2565b6000016020810190611e0891906130cc565b73ffffffffffffffffffffffffffffffffffffffff1673ffffffffffffffffffffffffffffffffffffffff16815260200190815260200160002060009054906101000a900460ff16611e86576040517f9db8d5b100000000000000000000000000000000000000000000000000000000815260040160405180910390fd5b828282818110611e9957611e98613c59565b5b9050602002810190611eab91906140b2565b6000016020810190611ebd91906130cc565b73ffffffffffffffffffffffffffffffffffffffff16638d32189633858585818110611eec57611eeb613c59565b5b9050602002810190611efe91906140b2565b8060200190611f0d91906140da565b6040518463ffffffff1660e01b8152600401611f2b939291906141af565b600060405180830381600087803b158015611f4557600080fd5b505af1158015611f59573d6000803e3d6000fd5b505050508080611f6890613da1565b915050611dc2565b505050565b600060ca60003373ffffffffffffffffffffffffffffffffffffffff1673ffffffffffffffffffffffffffffffffffffffff16815260200190815260200160002060009054906101000a900460ff16611ffa576040517f9e0125a900000000000000000000000000000000000000000000000000000000815260040160405180910390fd5b60cb60009054906101000a900473ffffffffffffffffffffffffffffffffffffffff1673ffffffffffffffffffffffffffffffffffffffff1663ee1fe2ad83336040518363ffffffff1660e01b81526004016120579291906141e1565b602060405180830381600087803b15801561207157600080fd5b505af1158015612085573d6000803e3d6000fd5b505050506040513d601f19601f820116820180604052508101906120a99190613c2c565b9050919050565b60cd60009054906101000a900460ff1681565b606060006120cf61117b565b90506000815167ffffffffffffffff8111156120ee576120ed613370565b5b60405190808252806020026020018201604052801561212757816020015b612114612edf565b81526020019060019003908161210c5790505b50905060005b825181101561242057600060ce600085848151811061214f5761214e613c59565b5b602002602001015173ffffffffffffffffffffffffffffffffffffffff1673ffffffffffffffffffffffffffffffffffffffff16815260200190815260200160002060009054906101000a900473ffffffffffffffffffffffffffffffffffffffff16905060008483815181106121c9576121c8613c59565b5b6020026020010151905060008584815181106121e8576121e7613c59565b5b602002602001015173ffffffffffffffffffffffffffffffffffffffff1663313ce5676040518163ffffffff1660e01b815260040160206040518083038186803b15801561223557600080fd5b505afa92505050801561226657506040513d601f19601f820116820180604052508101906122639190614236565b60015b6122735760129050612278565b809150505b6040518060a0016040528087868151811061229657612295613c59565b5b602002602001015173ffffffffffffffffffffffffffffffffffffffff1681526020018473ffffffffffffffffffffffffffffffffffffffff1681526020018373ffffffffffffffffffffffffffffffffffffffff166306fdde036040518163ffffffff1660e01b815260040160006040518083038186803b15801561231b57600080fd5b505afa15801561232f573d6000803e3d6000fd5b505050506040513d6000823e3d601f19601f820116820180604052508101906123589190613d29565b81526020018373ffffffffffffffffffffffffffffffffffffffff166395d89b416040518163ffffffff1660e01b815260040160006040518083038186803b1580156123a357600080fd5b505afa1580156123b7573d6000803e3d6000fd5b505050506040513d6000823e3d601f19601f820116820180604052508101906123e09190613d29565b81526020018260ff168152508585815181106123ff576123fe613c59565b5b6020026020010181905250505050808061241890613da1565b91505061212d565b50809250505090565b6124316127b1565b61243a826110bd565b612470576040517ff599342800000000000000000000000000000000000000000000000000000000815260040160405180910390fd5b60008173ffffffffffffffffffffffffffffffffffffffff1663ad3677026040518163ffffffff1660e01b815260040160206040518083038186803b1580156124b857600080fd5b505afa1580156124cc573d6000803e3d6000fd5b505050506040513d601f19601f820116820180604052508101906124f09190613c2c565b905060008273ffffffffffffffffffffffffffffffffffffffff166389da7df8670de0b6b3a76400006040518263ffffffff1660e01b81526004016125359190613eb7565b60206040518083038186803b15801561254d57600080fd5b505afa158015612561573d6000803e3d6000fd5b505050506040513d601f19601f820116820180604052508101906125859190613c2c565b905060008214806125965750600081145b156125cd576040517ff599342800000000000000000000000000000000000000000000000000000000815260040160405180910390fd5b8260ce60008673ffffffffffffffffffffffffffffffffffffffff1673ffffffffffffffffffffffffffffffffffffffff16815260200190815260200160002060006101000a81548173ffffffffffffffffffffffffffffffffffffffff021916908373ffffffffffffffffffffffffffffffffffffffff1602179055508373ffffffffffffffffffffffffffffffffffffffff167f49cd8230877f9b72117976ca27f6fc94760827dc532052c32cee031012209bb7846040516126919190613108565b60405180910390a250505050565b606060c980548060200260200160405190810160405280929190818152602001828054801561272357602002820191906000526020600020905b8160009054906101000a900473ffffffffffffffffffffffffffffffffffffffff1673ffffffffffffffffffffffffffffffffffffffff16815260200190600101908083116126d9575b5050505050905090565b6127356127b1565b600073ffffffffffffffffffffffffffffffffffffffff168173ffffffffffffffffffffffffffffffffffffffff1614156127a5576040517f08c379a000000000000000000000000000000000000000000000000000000000815260040161279c906142d5565b60405180910390fd5b6127ae81612a0e565b50565b6127b9612ba1565b73ffffffffffffffffffffffffffffffffffffffff166127d76118e9565b73ffffffffffffffffffffffffffffffffffffffff161461282d576040517f08c379a000000000000000000000000000000000000000000000000000000000815260040161282490614341565b60405180910390fd5b565b600061285d7f360894a13ba1a3210667c828492db98dca3e2076cc3735a920a3ca505d382bbc60001b612ba9565b60000160009054906101000a900473ffffffffffffffffffffffffffffffffffffffff16905090565b61288e6127b1565b50565b6128bd7f4910fdfa16fed3260ed0e7147f7cc6da11a60208b5b9406d12a635614ffd914360001b612bb3565b60000160009054906101000a900460ff16156128e1576128dc83612bbd565b612a09565b8273ffffffffffffffffffffffffffffffffffffffff166352d1902d6040518163ffffffff1660e01b815260040160206040518083038186803b15801561292757600080fd5b505afa92505050801561295857506040513d601f19601f82011682018060405250810190612955919061438d565b60015b612997576040517f08c379a000000000000000000000000000000000000000000000000000000000815260040161298e9061442c565b60405180910390fd5b7f360894a13ba1a3210667c828492db98dca3e2076cc3735a920a3ca505d382bbc60001b81146129fc576040517f08c379a00000000000000000000000000000000000000000000000000000000081526004016129f3906144be565b60405180910390fd5b50612a08838383612c76565b5b505050565b6000603360009054906101000a900473ffffffffffffffffffffffffffffffffffffffff16905081603360006101000a81548173ffffffffffffffffffffffffffffffffffffffff021916908373ffffffffffffffffffffffffffffffffffffffff1602179055508173ffffffffffffffffffffffffffffffffffffffff168173ffffffffffffffffffffffffffffffffffffffff167f8be0079c531659141344cd1fd0a4f28419497f9722a3daafe3b4186f6b6457e060405160405180910390a35050565b6000808273ffffffffffffffffffffffffffffffffffffffff163b119050919050565b600060019054906101000a900460ff16612b46576040517f08c379a0000000000000000000000000000000000000000000000000000000008152600401612b3d90614550565b60405180910390fd5b612b4e612ca2565b565b600060019054906101000a900460ff16612b9f576040517f08c379a0000000000000000000000000000000000000000000000000000000008152600401612b9690614550565b60405180910390fd5b565b600033905090565b6000819050919050565b6000819050919050565b612bc681612ad4565b612c05576040517f08c379a0000000000000000000000000000000000000000000000000000000008152600401612bfc906145e2565b60405180910390fd5b80612c327f360894a13ba1a3210667c828492db98dca3e2076cc3735a920a3ca505d382bbc60001b612ba9565b60000160006101000a81548173ffffffffffffffffffffffffffffffffffffffff021916908373ffffffffffffffffffffffffffffffffffffffff16021790555050565b612c7f83612d03565b600082511180612c8c5750805b15612c9d57612c9b8383612d52565b505b505050565b600060019054906101000a900460ff16612cf1576040517f08c379a0000000000000000000000000000000000000000000000000000000008152600401612ce890614550565b60405180910390fd5b612d01612cfc612ba1565b612a0e565b565b612d0c81612bbd565b8073ffffffffffffffffffffffffffffffffffffffff167fbc7cd75a20ee27fd9adebab32041f755214dbc6bffa90cc0225b39da2e5c2d3b60405160405180910390a250565b6060612d5d83612ad4565b612d9c576040517f08c379a0000000000000000000000000000000000000000000000000000000008152600401612d9390614674565b60405180910390fd5b6000808473ffffffffffffffffffffffffffffffffffffffff1684604051612dc491906146db565b600060405180830381855af49150503d8060008114612dff576040519150601f19603f3d011682016040523d82523d6000602084013e612e04565b606091505b5091509150612e2c828260405180606001604052806027815260200161471560279139612e36565b9250505092915050565b60608315612e4657829050612e51565b612e508383612e58565b5b9392505050565b600082511115612e6b5781518083602001fd5b806040517f08c379a0000000000000000000000000000000000000000000000000000000008152600401612e9f91906146f2565b60405180910390fd5b6040518060600160405280600073ffffffffffffffffffffffffffffffffffffffff16815260200160608152602001606081525090565b6040518060a00160405280600073ffffffffffffffffffffffffffffffffffffffff168152602001600073ffffffffffffffffffffffffffffffffffffffff1681526020016060815260200160608152602001600060ff1681525090565b6000604051905090565b600080fd5b600080fd5b600073ffffffffffffffffffffffffffffffffffffffff82169050919050565b6000612f7c82612f51565b9050919050565b612f8c81612f71565b8114612f9757600080fd5b50565b600081359050612fa981612f83565b92915050565b6000819050919050565b612fc281612faf565b8114612fcd57600080fd5b50565b600081359050612fdf81612fb9565b92915050565b60008060408385031215612ffc57612ffb612f47565b5b600061300a85828601612f9a565b925050602061301b85828601612fd0565b9150509250929050565b60006020828403121561303b5761303a612f47565b5b600061304984828501612fd0565b91505092915050565b6000819050919050565b600061307761307261306d84612f51565b613052565b612f51565b9050919050565b60006130898261305c565b9050919050565b600061309b8261307e565b9050919050565b6130ab81613090565b82525050565b60006020820190506130c660008301846130a2565b92915050565b6000602082840312156130e2576130e1612f47565b5b60006130f084828501612f9a565b91505092915050565b61310281612f71565b82525050565b600060208201905061311d60008301846130f9565b92915050565b61312c81612faf565b82525050565b60006020820190506131476000830184613123565b92915050565b600081519050919050565b600082825260208201905092915050565b6000819050602082019050919050565b61318281612f71565b82525050565b600081519050919050565b600082825260208201905092915050565b60005b838110156131c25780820151818401526020810190506131a7565b838111156131d1576000848401525b50505050565b6000601f19601f8301169050919050565b60006131f382613188565b6131fd8185613193565b935061320d8185602086016131a4565b613216816131d7565b840191505092915050565b60006060830160008301516132396000860182613179565b506020830151848203602086015261325182826131e8565b9150506040830151848203604086015261326b82826131e8565b9150508091505092915050565b60006132848383613221565b905092915050565b6000602082019050919050565b60006132a48261314d565b6132ae8185613158565b9350836020820285016132c085613169565b8060005b858110156132fc57848403895281516132dd8582613278565b94506132e88361328c565b925060208a019950506001810190506132c4565b50829750879550505050505092915050565b600060208201905081810360008301526133288184613299565b905092915050565b60008115159050919050565b61334581613330565b82525050565b6000602082019050613360600083018461333c565b92915050565b600080fd5b600080fd5b7f4e487b7100000000000000000000000000000000000000000000000000000000600052604160045260246000fd5b6133a8826131d7565b810181811067ffffffffffffffff821117156133c7576133c6613370565b5b80604052505050565b60006133da612f3d565b90506133e6828261339f565b919050565b600067ffffffffffffffff82111561340657613405613370565b5b61340f826131d7565b9050602081019050919050565b82818337600083830152505050565b600061343e613439846133eb565b6133d0565b90508281526020810184848401111561345a5761345961336b565b5b61346584828561341c565b509392505050565b600082601f83011261348257613481613366565b5b813561349284826020860161342b565b91505092915050565b600080604083850312156134b2576134b1612f47565b5b60006134c085828601612f9a565b925050602083013567ffffffffffffffff8111156134e1576134e0612f4c565b5b6134ed8582860161346d565b9150509250929050565b60006135028261307e565b9050919050565b613512816134f7565b82525050565b600060208201905061352d6000830184613509565b92915050565b600081519050919050565b600082825260208201905092915050565b6000819050602082019050919050565b600061356b8383613179565b60208301905092915050565b6000602082019050919050565b600061358f82613533565b613599818561353e565b93506135a48361354f565b8060005b838110156135d55781516135bc888261355f565b97506135c783613577565b9250506001810190506135a8565b5085935050505092915050565b600060208201905081810360008301526135fc8184613584565b905092915050565b6000819050919050565b61361781613604565b82525050565b6000602082019050613632600083018461360e565b92915050565b600061364382612f71565b9050919050565b61365381613638565b811461365e57600080fd5b50565b6000813590506136708161364a565b92915050565b60006020828403121561368c5761368b612f47565b5b600061369a84828501613661565b91505092915050565b6136ac81613330565b81146136b757600080fd5b50565b6000813590506136c9816136a3565b92915050565b6000602082840312156136e5576136e4612f47565b5b60006136f3848285016136ba565b91505092915050565b6000806040838503121561371357613712612f47565b5b600061372185828601612f9a565b925050602061373285828601612f9a565b9150509250929050565b600061374782612f71565b9050919050565b6137578161373c565b811461376257600080fd5b50565b6000813590506137748161374e565b92915050565b6000602082840312156137905761378f612f47565b5b600061379e84828501613765565b91505092915050565b600080fd5b600080fd5b60008083601f8401126137c7576137c6613366565b5b8235905067ffffffffffffffff8111156137e4576137e36137a7565b5b602083019150836020820283011115613800576137ff6137ac565b5b9250929050565b6000806020838503121561381e5761381d612f47565b5b600083013567ffffffffffffffff81111561383c5761383b612f4c565b5b613848858286016137b1565b92509250509250929050565b600081519050919050565b600082825260208201905092915050565b6000819050602082019050919050565b600060ff82169050919050565b61389681613880565b82525050565b600060a0830160008301516138b46000860182613179565b5060208301516138c76020860182613179565b50604083015184820360408601526138df82826131e8565b915050606083015184820360608601526138f982826131e8565b915050608083015161390e608086018261388d565b508091505092915050565b6000613925838361389c565b905092915050565b6000602082019050919050565b600061394582613854565b61394f818561385f565b93508360208202850161396185613870565b8060005b8581101561399d578484038952815161397e8582613919565b94506139898361392d565b925060208a01995050600181019050613965565b50829750879550505050505092915050565b600060208201905081810360008301526139c9818461393a565b905092915050565b600081519050919050565b6000819050602082019050919050565b6139f581613090565b82525050565b6000613a0783836139ec565b60208301905092915050565b6000602082019050919050565b6000613a2b826139d1565b613a35818561353e565b9350613a40836139dc565b8060005b83811015613a71578151613a5888826139fb565b9750613a6383613a13565b925050600181019050613a44565b5085935050505092915050565b60006020820190508181036000830152613a988184613a20565b905092915050565b600081519050613aaf81612f83565b92915050565b600060208284031215613acb57613aca612f47565b5b6000613ad984828501613aa0565b91505092915050565b600082825260208201905092915050565b7f46756e6374696f6e206d7573742062652063616c6c6564207468726f7567682060008201527f64656c656761746563616c6c0000000000000000000000000000000000000000602082015250565b6000613b4f602c83613ae2565b9150613b5a82613af3565b604082019050919050565b60006020820190508181036000830152613b7e81613b42565b9050919050565b7f46756e6374696f6e206d7573742062652063616c6c6564207468726f7567682060008201527f6163746976652070726f78790000000000000000000000000000000000000000602082015250565b6000613be1602c83613ae2565b9150613bec82613b85565b604082019050919050565b60006020820190508181036000830152613c1081613bd4565b9050919050565b600081519050613c2681612fb9565b92915050565b600060208284031215613c4257613c41612f47565b5b6000613c5084828501613c17565b91505092915050565b7f4e487b7100000000000000000000000000000000000000000000000000000000600052603260045260246000fd5b600067ffffffffffffffff821115613ca357613ca2613370565b5b613cac826131d7565b9050602081019050919050565b6000613ccc613cc784613c88565b6133d0565b905082815260208101848484011115613ce857613ce761336b565b5b613cf38482856131a4565b509392505050565b600082601f830112613d1057613d0f613366565b5b8151613d20848260208601613cb9565b91505092915050565b600060208284031215613d3f57613d3e612f47565b5b600082015167ffffffffffffffff811115613d5d57613d5c612f4c565b5b613d6984828501613cfb565b91505092915050565b7f4e487b7100000000000000000000000000000000000000000000000000000000600052601160045260246000fd5b6000613dac82612faf565b91507fffffffffffffffffffffffffffffffffffffffffffffffffffffffffffffffff821415613ddf57613dde613d72565b5b600182019050919050565b7f555550535570677261646561626c653a206d757374206e6f742062652063616c60008201527f6c6564207468726f7567682064656c656761746563616c6c0000000000000000602082015250565b6000613e46603883613ae2565b9150613e5182613dea565b604082019050919050565b60006020820190508181036000830152613e7581613e39565b9050919050565b6000819050919050565b6000613ea1613e9c613e9784613e7c565b613052565b612faf565b9050919050565b613eb181613e86565b82525050565b6000602082019050613ecc6000830184613ea8565b92915050565b7f496e697469616c697a61626c653a20636f6e747261637420697320616c72656160008201527f647920696e697469616c697a6564000000000000000000000000000000000000602082015250565b6000613f2e602e83613ae2565b9150613f3982613ed2565b604082019050919050565b60006020820190508181036000830152613f5d81613f21565b9050919050565b6000819050919050565b6000613f89613f84613f7f84613f64565b613052565b613880565b9050919050565b613f9981613f6e565b82525050565b6000602082019050613fb46000830184613f90565b92915050565b6000613fc582612f71565b9050919050565b613fd581613fba565b8114613fe057600080fd5b50565b600081519050613ff281613fcc565b92915050565b60006020828403121561400e5761400d612f47565b5b600061401c84828501613fe3565b91505092915050565b600061403082613188565b61403a8185613ae2565b935061404a8185602086016131a4565b614053816131d7565b840191505092915050565b600060608201905061407360008301866130f9565b81810360208301526140858185614025565b905081810360408301526140998184614025565b9050949350505050565b600080fd5b600080fd5b600080fd5b6000823560016040038336030381126140ce576140cd6140a3565b5b80830191505092915050565b600080833560016020038436030381126140f7576140f66140a3565b5b80840192508235915067ffffffffffffffff821115614119576141186140a8565b5b602083019250602082023603831315614135576141346140ad565b5b509250929050565b600082825260208201905092915050565b600080fd5b600061415f838561413d565b93507f07ffffffffffffffffffffffffffffffffffffffffffffffffffffffffffffff8311156141925761419161414e565b5b6020830292506141a383858461341c565b82840190509392505050565b60006040820190506141c460008301866130f9565b81810360208301526141d7818486614153565b9050949350505050565b60006040820190506141f660008301856130f9565b61420360208301846130f9565b9392505050565b61421381613880565b811461421e57600080fd5b50565b6000815190506142308161420a565b92915050565b60006020828403121561424c5761424b612f47565b5b600061425a84828501614221565b91505092915050565b7f4f776e61626c653a206e6577206f776e657220697320746865207a65726f206160008201527f6464726573730000000000000000000000000000000000000000000000000000602082015250565b60006142bf602683613ae2565b91506142ca82614263565b604082019050919050565b600060208201905081810360008301526142ee816142b2565b9050919050565b7f4f776e61626c653a2063616c6c6572206973206e6f7420746865206f776e6572600082015250565b600061432b602083613ae2565b9150614336826142f5565b602082019050919050565b6000602082019050818103600083015261435a8161431e565b9050919050565b61436a81613604565b811461437557600080fd5b50565b60008151905061438781614361565b92915050565b6000602082840312156143a3576143a2612f47565b5b60006143b184828501614378565b91505092915050565b7f45524331393637557067726164653a206e657720696d706c656d656e7461746960008201527f6f6e206973206e6f742055555053000000000000000000000000000000000000602082015250565b6000614416602e83613ae2565b9150614421826143ba565b604082019050919050565b6000602082019050818103600083015261444581614409565b9050919050565b7f45524331393637557067726164653a20756e737570706f727465642070726f7860008201527f6961626c65555549440000000000000000000000000000000000000000000000602082015250565b60006144a8602983613ae2565b91506144b38261444c565b604082019050919050565b600060208201905081810360008301526144d78161449b565b9050919050565b7f496e697469616c697a61626c653a20636f6e7472616374206973206e6f74206960008201527f6e697469616c697a696e67000000000000000000000000000000000000000000602082015250565b600061453a602b83613ae2565b9150614545826144de565b604082019050919050565b600060208201905081810360008301526145698161452d565b9050919050565b7f455243313936373a206e657720696d706c656d656e746174696f6e206973206e60008201527f6f74206120636f6e747261637400000000000000000000000000000000000000602082015250565b60006145cc602d83613ae2565b91506145d782614570565b604082019050919050565b600060208201905081810360008301526145fb816145bf565b9050919050565b7f416464726573733a2064656c65676174652063616c6c20746f206e6f6e2d636f60008201527f6e74726163740000000000000000000000000000000000000000000000000000602082015250565b600061465e602683613ae2565b915061466982614602565b604082019050919050565b6000602082019050818103600083015261468d81614651565b9050919050565b600081519050919050565b600081905092915050565b60006146b582614694565b6146bf818561469f565b93506146cf8185602086016131a4565b80840191505092915050565b60006146e782846146aa565b915081905092915050565b6000602082019050818103600083015261470c8184614025565b90509291505056fe416464726573733a206c6f772d6c6576656c2064656c65676174652063616c6c206661696c6564a26469706673582212203ea1dbde7c2e1021abb1a04e6580f3a9351535a834d9c18868a4921db82d705b64736f6c63430008090033",
  "linkReferences": {},
  "deployedLinkReferences": {}
}