{
    "_format": "hh-sol-artifact-1",
    "contractName": "OpenMarketsOracle",
    "sourceName": "contracts/OpenMarketsOracle.sol",
    "abi": [
        {
            "inputs": [],
            "stateMutability": "nonpayable",
            "type": "constructor"
        },
        {
            "inputs": [],
            "name": "DataFeedCreatorExists",
            "type": "error"
        },
        {
            "inputs": [],
            "name": "DataFeedCreatorNotFound",
            "type": "error"
        },
        {
            "inputs": [],
            "name": "DataFeedNotFound",
            "type": "error"
        },
        {
            "inputs": [],
            "name": "InvalidDataFeedCreator",
            "type": "error"
        },
        {
            "inputs": [],
            "name": "NoValueFoundForTimestamp",
            "type": "error"
        },
        {
            "inputs": [],
            "name": "NoValuesInDataFeed",
            "type": "error"
        },
        {
            "inputs": [],
            "name": "NoZeroAddress",
            "type": "error"
        },
        {
            "inputs": [],
            "name": "OnlyDataFeedOwner",
            "type": "error"
        },
        {
            "inputs": [],
            "name": "OnlySubscriberOwner",
            "type": "error"
        },
        {
            "inputs": [],
            "name": "SubscriberNotFound",
            "type": "error"
        },
        {
            "inputs": [],
            "name": "SubscriberOwnerNotFound",
            "type": "error"
        },
        {
            "anonymous": false,
            "inputs": [
                {
                    "indexed": false,
                    "internalType": "address",
                    "name": "previousAdmin",
                    "type": "address"
                },
                {
                    "indexed": false,
                    "internalType": "address",
                    "name": "newAdmin",
                    "type": "address"
                }
            ],
            "name": "AdminChanged",
            "type": "event"
        },
        {
            "anonymous": false,
            "inputs": [
                {
                    "indexed": true,
                    "internalType": "address",
                    "name": "beacon",
                    "type": "address"
                }
            ],
            "name": "BeaconUpgraded",
            "type": "event"
        },
        {
            "anonymous": false,
            "inputs": [
                {
                    "indexed": false,
                    "internalType": "uint256",
                    "name": "dataFeedId",
                    "type": "uint256"
                },
                {
                    "indexed": false,
                    "internalType": "string",
                    "name": "nickname",
                    "type": "string"
                },
                {
                    "indexed": false,
                    "internalType": "bytes32",
                    "name": "rulesHash",
                    "type": "bytes32"
                },
                {
                    "indexed": false,
                    "internalType": "address",
                    "name": "owner",
                    "type": "address"
                }
            ],
            "name": "DataFeedCreated",
            "type": "event"
        },
        {
            "anonymous": false,
            "inputs": [
                {
                    "indexed": false,
                    "internalType": "address",
                    "name": "dataFeedCreator",
                    "type": "address"
                }
            ],
            "name": "DataFeedCreatorAdded",
            "type": "event"
        },
        {
            "anonymous": false,
            "inputs": [
                {
                    "indexed": false,
                    "internalType": "address",
                    "name": "dataFeedCreator",
                    "type": "address"
                }
            ],
            "name": "DataFeedCreatorRemoved",
            "type": "event"
        },
        {
            "anonymous": false,
            "inputs": [
                {
                    "indexed": false,
                    "internalType": "uint8",
                    "name": "version",
                    "type": "uint8"
                }
            ],
            "name": "Initialized",
            "type": "event"
        },
        {
            "anonymous": false,
            "inputs": [
                {
                    "indexed": true,
                    "internalType": "address",
                    "name": "previousOwner",
                    "type": "address"
                },
                {
                    "indexed": true,
                    "internalType": "address",
                    "name": "newOwner",
                    "type": "address"
                }
            ],
            "name": "OwnershipTransferred",
            "type": "event"
        },
        {
            "anonymous": false,
            "inputs": [
                {
                    "indexed": false,
                    "internalType": "address",
                    "name": "subscriber",
                    "type": "address"
                },
                {
                    "indexed": false,
                    "internalType": "uint256",
                    "name": "dataFeedId",
                    "type": "uint256"
                }
            ],
            "name": "SubscriberAdded",
            "type": "event"
        },
        {
            "anonymous": false,
            "inputs": [
                {
                    "indexed": true,
                    "internalType": "address",
                    "name": "implementation",
                    "type": "address"
                }
            ],
            "name": "Upgraded",
            "type": "event"
        },
        {
            "anonymous": false,
            "inputs": [
                {
                    "indexed": false,
                    "internalType": "uint256",
                    "name": "dataFeedId",
                    "type": "uint256"
                },
                {
                    "indexed": false,
                    "internalType": "uint256",
                    "name": "newValue",
                    "type": "uint256"
                }
            ],
            "name": "ValueUpdated",
            "type": "event"
        },
        {
            "inputs": [
                {
                    "internalType": "address",
                    "name": "_newCreator",
                    "type": "address"
                }
            ],
            "name": "addDataFeedCreator",
            "outputs": [],
            "stateMutability": "nonpayable",
            "type": "function"
        },
        {
            "inputs": [
                {
                    "internalType": "string",
                    "name": "_nickname",
                    "type": "string"
                },
                {
                    "internalType": "bytes32",
                    "name": "_rulesHash",
                    "type": "bytes32"
                }
            ],
            "name": "createDataFeed",
            "outputs": [],
            "stateMutability": "nonpayable",
            "type": "function"
        },
        {
            "inputs": [
                {
                    "internalType": "address",
                    "name": "",
                    "type": "address"
                }
            ],
            "name": "dataFeedCreators",
            "outputs": [
                {
                    "internalType": "bool",
                    "name": "",
                    "type": "bool"
                }
            ],
            "stateMutability": "view",
            "type": "function"
        },
        {
            "inputs": [
                {
                    "internalType": "uint256",
                    "name": "",
                    "type": "uint256"
                }
            ],
            "name": "dataFeeds",
            "outputs": [
                {
                    "internalType": "address",
                    "name": "owner",
                    "type": "address"
                },
                {
                    "internalType": "string",
                    "name": "nickname",
                    "type": "string"
                },
                {
                    "internalType": "bytes32",
                    "name": "rulesHash",
                    "type": "bytes32"
                }
            ],
            "stateMutability": "view",
            "type": "function"
        },
        {
            "inputs": [
                {
                    "internalType": "uint256",
                    "name": "_dataFeedId",
                    "type": "uint256"
                }
            ],
            "name": "getDataFeedInfo",
            "outputs": [
                {
                    "components": [
                        {
                            "internalType": "uint256",
                            "name": "id",
                            "type": "uint256"
                        },
                        {
                            "internalType": "string",
                            "name": "nickname",
                            "type": "string"
                        },
                        {
                            "internalType": "bytes32",
                            "name": "rulesHash",
                            "type": "bytes32"
                        },
                        {
                            "components": [
                                {
                                    "internalType": "uint256",
                                    "name": "value",
                                    "type": "uint256"
                                },
                                {
                                    "internalType": "uint256",
                                    "name": "timestamp",
                                    "type": "uint256"
                                }
                            ],
                            "internalType": "struct OpenMarketsOracle.Value",
                            "name": "latestValue",
                            "type": "tuple"
                        }
                    ],
                    "internalType": "struct OpenMarketsOracle.DataFeedInfo",
                    "name": "",
                    "type": "tuple"
                }
            ],
            "stateMutability": "view",
            "type": "function"
        },
        {
            "inputs": [
                {
                    "internalType": "bytes32",
                    "name": "_rulesHash",
                    "type": "bytes32"
                }
            ],
            "name": "getDataFeedInfoByHash",
            "outputs": [
                {
                    "components": [
                        {
                            "internalType": "uint256",
                            "name": "id",
                            "type": "uint256"
                        },
                        {
                            "internalType": "string",
                            "name": "nickname",
                            "type": "string"
                        },
                        {
                            "internalType": "bytes32",
                            "name": "rulesHash",
                            "type": "bytes32"
                        },
                        {
                            "components": [
                                {
                                    "internalType": "uint256",
                                    "name": "value",
                                    "type": "uint256"
                                },
                                {
                                    "internalType": "uint256",
                                    "name": "timestamp",
                                    "type": "uint256"
                                }
                            ],
                            "internalType": "struct OpenMarketsOracle.Value",
                            "name": "latestValue",
                            "type": "tuple"
                        }
                    ],
                    "internalType": "struct OpenMarketsOracle.DataFeedInfo",
                    "name": "",
                    "type": "tuple"
                }
            ],
            "stateMutability": "view",
            "type": "function"
        },
        {
            "inputs": [
                {
                    "internalType": "bytes32",
                    "name": "_rulesHash",
                    "type": "bytes32"
                },
                {
                    "internalType": "address",
                    "name": "_owner",
                    "type": "address"
                }
            ],
            "name": "getDataFeedInfoByHash",
            "outputs": [
                {
                    "components": [
                        {
                            "internalType": "uint256",
                            "name": "id",
                            "type": "uint256"
                        },
                        {
                            "internalType": "string",
                            "name": "nickname",
                            "type": "string"
                        },
                        {
                            "internalType": "bytes32",
                            "name": "rulesHash",
                            "type": "bytes32"
                        },
                        {
                            "components": [
                                {
                                    "internalType": "uint256",
                                    "name": "value",
                                    "type": "uint256"
                                },
                                {
                                    "internalType": "uint256",
                                    "name": "timestamp",
                                    "type": "uint256"
                                }
                            ],
                            "internalType": "struct OpenMarketsOracle.Value",
                            "name": "latestValue",
                            "type": "tuple"
                        }
                    ],
                    "internalType": "struct OpenMarketsOracle.DataFeedInfo",
                    "name": "",
                    "type": "tuple"
                }
            ],
            "stateMutability": "view",
            "type": "function"
        },
        {
            "inputs": [],
            "name": "getDataFeeds",
            "outputs": [
                {
                    "components": [
                        {
                            "internalType": "uint256",
                            "name": "id",
                            "type": "uint256"
                        },
                        {
                            "internalType": "string",
                            "name": "nickname",
                            "type": "string"
                        },
                        {
                            "internalType": "bytes32",
                            "name": "rulesHash",
                            "type": "bytes32"
                        },
                        {
                            "components": [
                                {
                                    "internalType": "uint256",
                                    "name": "value",
                                    "type": "uint256"
                                },
                                {
                                    "internalType": "uint256",
                                    "name": "timestamp",
                                    "type": "uint256"
                                }
                            ],
                            "internalType": "struct OpenMarketsOracle.Value",
                            "name": "latestValue",
                            "type": "tuple"
                        }
                    ],
                    "internalType": "struct OpenMarketsOracle.DataFeedInfo[]",
                    "name": "",
                    "type": "tuple[]"
                }
            ],
            "stateMutability": "view",
            "type": "function"
        },
        {
            "inputs": [
                {
                    "internalType": "uint256",
                    "name": "_limit",
                    "type": "uint256"
                }
            ],
            "name": "getDataFeeds",
            "outputs": [
                {
                    "components": [
                        {
                            "internalType": "uint256",
                            "name": "id",
                            "type": "uint256"
                        },
                        {
                            "internalType": "string",
                            "name": "nickname",
                            "type": "string"
                        },
                        {
                            "internalType": "bytes32",
                            "name": "rulesHash",
                            "type": "bytes32"
                        },
                        {
                            "components": [
                                {
                                    "internalType": "uint256",
                                    "name": "value",
                                    "type": "uint256"
                                },
                                {
                                    "internalType": "uint256",
                                    "name": "timestamp",
                                    "type": "uint256"
                                }
                            ],
                            "internalType": "struct OpenMarketsOracle.Value",
                            "name": "latestValue",
                            "type": "tuple"
                        }
                    ],
                    "internalType": "struct OpenMarketsOracle.DataFeedInfo[]",
                    "name": "",
                    "type": "tuple[]"
                }
            ],
            "stateMutability": "view",
            "type": "function"
        },
        {
            "inputs": [
                {
                    "internalType": "uint256",
                    "name": "_limit",
                    "type": "uint256"
                },
                {
                    "internalType": "uint256",
                    "name": "_offset",
                    "type": "uint256"
                }
            ],
            "name": "getDataFeeds",
            "outputs": [
                {
                    "components": [
                        {
                            "internalType": "uint256",
                            "name": "id",
                            "type": "uint256"
                        },
                        {
                            "internalType": "string",
                            "name": "nickname",
                            "type": "string"
                        },
                        {
                            "internalType": "bytes32",
                            "name": "rulesHash",
                            "type": "bytes32"
                        },
                        {
                            "components": [
                                {
                                    "internalType": "uint256",
                                    "name": "value",
                                    "type": "uint256"
                                },
                                {
                                    "internalType": "uint256",
                                    "name": "timestamp",
                                    "type": "uint256"
                                }
                            ],
                            "internalType": "struct OpenMarketsOracle.Value",
                            "name": "latestValue",
                            "type": "tuple"
                        }
                    ],
                    "internalType": "struct OpenMarketsOracle.DataFeedInfo[]",
                    "name": "",
                    "type": "tuple[]"
                }
            ],
            "stateMutability": "view",
            "type": "function"
        },
        {
            "inputs": [],
            "name": "getIndexValue",
            "outputs": [
                {
                    "internalType": "uint256",
                    "name": "",
                    "type": "uint256"
                }
            ],
            "stateMutability": "view",
            "type": "function"
        },
        {
            "inputs": [
                {
                    "internalType": "uint256",
                    "name": "_dataFeedId",
                    "type": "uint256"
                },
                {
                    "internalType": "uint256",
                    "name": "_timestamp",
                    "type": "uint256"
                }
            ],
            "name": "getIndexValueBefore",
            "outputs": [
                {
                    "internalType": "uint256",
                    "name": "",
                    "type": "uint256"
                }
            ],
            "stateMutability": "view",
            "type": "function"
        },
        {
            "inputs": [
                {
                    "internalType": "uint256",
                    "name": "_dataFeedId",
                    "type": "uint256"
                }
            ],
            "name": "getLatestValue",
            "outputs": [
                {
                    "components": [
                        {
                            "internalType": "uint256",
                            "name": "value",
                            "type": "uint256"
                        },
                        {
                            "internalType": "uint256",
                            "name": "timestamp",
                            "type": "uint256"
                        }
                    ],
                    "internalType": "struct OpenMarketsOracle.Value",
                    "name": "",
                    "type": "tuple"
                }
            ],
            "stateMutability": "view",
            "type": "function"
        },
        {
            "inputs": [
                {
                    "internalType": "uint256",
                    "name": "_dataFeedId",
                    "type": "uint256"
                },
                {
                    "internalType": "uint256",
                    "name": "_limit",
                    "type": "uint256"
                },
                {
                    "internalType": "uint256",
                    "name": "_offset",
                    "type": "uint256"
                }
            ],
            "name": "getValues",
            "outputs": [
                {
                    "components": [
                        {
                            "internalType": "uint256",
                            "name": "value",
                            "type": "uint256"
                        },
                        {
                            "internalType": "uint256",
                            "name": "timestamp",
                            "type": "uint256"
                        }
                    ],
                    "internalType": "struct OpenMarketsOracle.Value[]",
                    "name": "",
                    "type": "tuple[]"
                }
            ],
            "stateMutability": "view",
            "type": "function"
        },
        {
            "inputs": [
                {
                    "internalType": "uint256",
                    "name": "_dataFeedId",
                    "type": "uint256"
                },
                {
                    "internalType": "uint256",
                    "name": "_limit",
                    "type": "uint256"
                },
                {
                    "internalType": "uint256",
                    "name": "_offset",
                    "type": "uint256"
                },
                {
                    "internalType": "enum OpenMarketsOracle.SortDirection",
                    "name": "_sortDirection",
                    "type": "uint8"
                }
            ],
            "name": "getValues",
            "outputs": [
                {
                    "components": [
                        {
                            "internalType": "uint256",
                            "name": "value",
                            "type": "uint256"
                        },
                        {
                            "internalType": "uint256",
                            "name": "timestamp",
                            "type": "uint256"
                        }
                    ],
                    "internalType": "struct OpenMarketsOracle.Value[]",
                    "name": "",
                    "type": "tuple[]"
                }
            ],
            "stateMutability": "view",
            "type": "function"
        },
        {
            "inputs": [
                {
                    "internalType": "uint256",
                    "name": "_dataFeedId",
                    "type": "uint256"
                }
            ],
            "name": "getValues",
            "outputs": [
                {
                    "components": [
                        {
                            "internalType": "uint256",
                            "name": "value",
                            "type": "uint256"
                        },
                        {
                            "internalType": "uint256",
                            "name": "timestamp",
                            "type": "uint256"
                        }
                    ],
                    "internalType": "struct OpenMarketsOracle.Value[]",
                    "name": "",
                    "type": "tuple[]"
                }
            ],
            "stateMutability": "view",
            "type": "function"
        },
        {
            "inputs": [
                {
                    "internalType": "uint256",
                    "name": "_dataFeedId",
                    "type": "uint256"
                },
                {
                    "internalType": "uint256",
                    "name": "_limit",
                    "type": "uint256"
                }
            ],
            "name": "getValues",
            "outputs": [
                {
                    "components": [
                        {
                            "internalType": "uint256",
                            "name": "value",
                            "type": "uint256"
                        },
                        {
                            "internalType": "uint256",
                            "name": "timestamp",
                            "type": "uint256"
                        }
                    ],
                    "internalType": "struct OpenMarketsOracle.Value[]",
                    "name": "",
                    "type": "tuple[]"
                }
            ],
            "stateMutability": "view",
            "type": "function"
        },
        {
            "inputs": [],
            "name": "initialize",
            "outputs": [],
            "stateMutability": "nonpayable",
            "type": "function"
        },
        {
            "inputs": [],
            "name": "nextDataFeedId",
            "outputs": [
                {
                    "internalType": "uint256",
                    "name": "",
                    "type": "uint256"
                }
            ],
            "stateMutability": "view",
            "type": "function"
        },
        {
            "inputs": [],
            "name": "owner",
            "outputs": [
                {
                    "internalType": "address",
                    "name": "",
                    "type": "address"
                }
            ],
            "stateMutability": "view",
            "type": "function"
        },
        {
            "inputs": [],
            "name": "proxiableUUID",
            "outputs": [
                {
                    "internalType": "bytes32",
                    "name": "",
                    "type": "bytes32"
                }
            ],
            "stateMutability": "view",
            "type": "function"
        },
        {
            "inputs": [
                {
                    "internalType": "address",
                    "name": "_subscriber",
                    "type": "address"
                },
                {
                    "internalType": "uint256",
                    "name": "_dataFeedId",
                    "type": "uint256"
                }
            ],
            "name": "registerDataFeedSubscriber",
            "outputs": [],
            "stateMutability": "nonpayable",
            "type": "function"
        },
        {
            "inputs": [
                {
                    "internalType": "address",
                    "name": "_creatorToRemove",
                    "type": "address"
                }
            ],
            "name": "removeDataFeedCreator",
            "outputs": [],
            "stateMutability": "nonpayable",
            "type": "function"
        },
        {
            "inputs": [],
            "name": "renounceOwnership",
            "outputs": [],
            "stateMutability": "nonpayable",
            "type": "function"
        },
        {
            "inputs": [
                {
                    "internalType": "address",
                    "name": "",
                    "type": "address"
                }
            ],
            "name": "subscriberRegistry",
            "outputs": [
                {
                    "internalType": "uint256",
                    "name": "",
                    "type": "uint256"
                }
            ],
            "stateMutability": "view",
            "type": "function"
        },
        {
            "inputs": [
                {
                    "internalType": "address",
                    "name": "newOwner",
                    "type": "address"
                }
            ],
            "name": "transferOwnership",
            "outputs": [],
            "stateMutability": "nonpayable",
            "type": "function"
        },
        {
            "inputs": [
                {
                    "internalType": "uint256",
                    "name": "_dataFeedId",
                    "type": "uint256"
                },
                {
                    "internalType": "uint256",
                    "name": "_value",
                    "type": "uint256"
                }
            ],
            "name": "updateValue",
            "outputs": [],
            "stateMutability": "nonpayable",
            "type": "function"
        },
        {
            "inputs": [
                {
                    "internalType": "address",
                    "name": "newImplementation",
                    "type": "address"
                }
            ],
            "name": "upgradeTo",
            "outputs": [],
            "stateMutability": "nonpayable",
            "type": "function"
        },
        {
            "inputs": [
                {
                    "internalType": "address",
                    "name": "newImplementation",
                    "type": "address"
                },
                {
                    "internalType": "bytes",
                    "name": "data",
                    "type": "bytes"
                }
            ],
            "name": "upgradeToAndCall",
            "outputs": [],
            "stateMutability": "payable",
            "type": "function"
        }
    ],
    "bytecode": "0x60a06040523060805234801561001457600080fd5b5061001d610022565b6100e2565b600054610100900460ff161561008e5760405162461bcd60e51b815260206004820152602760248201527f496e697469616c697a61626c653a20636f6e747261637420697320696e697469604482015266616c697a696e6760c81b606482015260840160405180910390fd5b60005460ff90811610156100e0576000805460ff191660ff9081179091556040519081527f7f26b83ff96e1f2b6a682f133852f6798a09c465da95921460cefb38474024989060200160405180910390a15b565b6080516124166200011a60003960008181610690015281816106d901528181610a5201528181610a920152610b2501526124166000f3fe6080604052600436106101c25760003560e01c80637b06ec68116100f75780639326457511610095578063bb49116411610064578063bb4911641461050a578063cbc6fb871461052a578063e9865c731461056a578063f2fde38b1461058a57600080fd5b80639326457514610494578063a0ab3623146104b4578063a1a83c9f146104ca578063b29e522c146104ea57600080fd5b80638129fc1c116100d15780638129fc1c1461040a5780638944df321461041f578063897d349f1461044c5780638da5cb5b1461046c57600080fd5b80637b06ec681461039d5780637cea147f146103ca5780637eeef551146103ea57600080fd5b80634a850dae1161016457806352d1902d1161013e57806352d1902d146103335780635b500826146103485780636c75504c14610368578063715018a61461038857600080fd5b80634a850dae146102d35780634d700e66146102f35780634f1ef2861461032057600080fd5b8063340a1e3e116101a0578063340a1e3e1461025c5780633659cfe61461027c5780633b5881761461029e57806344add44b146102be57600080fd5b80630f6cd120146101c757806318f43470146101ff578063270ab8c01461023a575b600080fd5b3480156101d357600080fd5b506101e76101e2366004611bde565b6105aa565b6040516101f693929190611c47565b60405180910390f35b34801561020b57600080fd5b5061022c61021a366004611c90565b60cc6020526000908152604090205481565b6040519081526020016101f6565b34801561024657600080fd5b5061024f61065f565b6040516101f69190611cfc565b34801561026857600080fd5b5061024f610277366004611bde565b610673565b34801561028857600080fd5b5061029c610297366004611c90565b610686565b005b3480156102aa57600080fd5b5061029c6102b9366004611c90565b61076e565b3480156102ca57600080fd5b5061022c610832565b3480156102df57600080fd5b5061022c6102ee366004611d5e565b610872565b3480156102ff57600080fd5b5061031361030e366004611bde565b6109a0565b6040516101f69190611d80565b61029c61032e366004611dad565b610a48565b34801561033f57600080fd5b5061022c610b18565b34801561035457600080fd5b5061029c610363366004611d5e565b610bcb565b34801561037457600080fd5b5061029c610383366004611e71565b610c92565b34801561039457600080fd5b5061029c610d7a565b3480156103a957600080fd5b506103bd6103b8366004611bde565b610d8e565b6040516101f69190611ee9565b3480156103d657600080fd5b506103bd6103e5366004611bde565b610ead565b3480156103f657600080fd5b5061024f610405366004611d5e565b610ebf565b34801561041657600080fd5b5061029c610fee565b34801561042b57600080fd5b5061043f61043a366004611efc565b611105565b6040516101f69190611f28565b34801561045857600080fd5b5061029c610467366004611c90565b61111e565b34801561047857600080fd5b506033546040516001600160a01b0390911681526020016101f6565b3480156104a057600080fd5b5061043f6104af366004611f7f565b6111da565b3480156104c057600080fd5b5061022c60c95481565b3480156104d657600080fd5b5061029c6104e5366004611fc4565b611462565b3480156104f657600080fd5b5061043f610505366004611bde565b611590565b34801561051657600080fd5b506103bd610525366004611ff0565b6115a1565b34801561053657600080fd5b5061055a610545366004611c90565b60cb6020526000908152604090205460ff1681565b60405190151581526020016101f6565b34801561057657600080fd5b5061043f610585366004611d5e565b611631565b34801561059657600080fd5b5061029c6105a5366004611c90565b611640565b60ca60205260009081526040902080546001820180546001600160a01b0390921692916105d690612020565b80601f016020809104026020016040519081016040528092919081815260200182805461060290612020565b801561064f5780601f106106245761010080835404028352916020019161064f565b820191906000526020600020905b81548152906001019060200180831161063257829003601f168201915b5050505050908060020154905083565b606061066e6103e86000610ebf565b905090565b6060610680826000610ebf565b92915050565b6001600160a01b037f00000000000000000000000000000000000000000000000000000000000000001630036106d75760405162461bcd60e51b81526004016106ce9061205a565b60405180910390fd5b7f00000000000000000000000000000000000000000000000000000000000000006001600160a01b031661072060008051602061239a833981519152546001600160a01b031690565b6001600160a01b0316146107465760405162461bcd60e51b81526004016106ce906120a6565b61074f816116b6565b6040805160008082526020820190925261076b918391906116be565b50565b61077661182e565b6001600160a01b03811661079d5760405163ddbadd5f60e01b815260040160405180910390fd5b6001600160a01b038116600090815260cb602052604090205460ff16156107d7576040516315945d8360e31b815260040160405180910390fd5b6001600160a01b038116600081815260cb6020908152604091829020805460ff1916600117905590519182527fbee92e3156054a0636fb71dc6b894ddb70a5db963fc543fca239688ce6974f5a91015b60405180910390a150565b33600090815260cc60205260408120548082036108615760405162eb655d60e21b815260040160405180910390fd5b61086c816000610872565b91505090565b600082815260ca602052604081206003015481036108a35760405163e6339d0560e01b815260040160405180910390fd5b816000036108f357600083815260ca6020526040902060030180546108ca90600190612108565b815481106108da576108da61211b565b9060005260206000209060020201600001549050610680565b600083815260ca60205260409020600301545b801561098657600084815260ca60205260408120600301610928600184612108565b815481106109385761093861211b565b600091825260209182902060408051808201909152600290920201805482526001015491810182905291508410610973575191506106809050565b508061097e81612131565b915050610906565b506040516351922a1160e11b815260040160405180910390fd5b6040805180820190915260008082526020820152600082815260ca602052604081206003015490036109e5575050604080518082019091526000808252602082015290565b600082815260ca602052604090206003018054610a0490600190612108565b81548110610a1457610a1461211b565b9060005260206000209060020201604051806040016040529081600082015481526020016001820154815250509050919050565b6001600160a01b037f0000000000000000000000000000000000000000000000000000000000000000163003610a905760405162461bcd60e51b81526004016106ce9061205a565b7f00000000000000000000000000000000000000000000000000000000000000006001600160a01b0316610ad960008051602061239a833981519152546001600160a01b031690565b6001600160a01b031614610aff5760405162461bcd60e51b81526004016106ce906120a6565b610b08826116b6565b610b14828260016116be565b5050565b6000306001600160a01b037f00000000000000000000000000000000000000000000000000000000000000001614610bb85760405162461bcd60e51b815260206004820152603860248201527f555550535570677261646561626c653a206d757374206e6f742062652063616c60448201527f6c6564207468726f7567682064656c656761746563616c6c000000000000000060648201526084016106ce565b5060008051602061239a83398151915290565b600082815260ca602052604090205482906001600160a01b03163314610c0457604051634539372360e11b815260040160405180910390fd5b600083815260ca6020908152604080832081518083018352868152428185019081526003909201805460018181018355918752949095209051600290940201928355519190920155517f253ac2c290fb3c37b20cfd60899ed86c0c8313905edc8ca53ec8d2b69d9919ad90610c859085908590918252602082015260400190565b60405180910390a1505050565b6033546001600160a01b03163314801590610cbd575033600090815260cb602052604090205460ff16155b15610cdb5760405163c63e278560e01b815260040160405180910390fd5b60c9805460009182610cec83612148565b90915550600081815260ca6020526040902080546001600160a01b03191633178155909150600101610d1f8486836121af565b50600081815260ca602052604090819020600201839055517fc9fe3a43ebe37f59995912e620d8b258c7e163143ec28420c526ea9d48662d1890610d6c9083908790879087903390612270565b60405180910390a150505050565b610d8261182e565b610d8c6000611888565b565b610d96611b99565b600082815260ca60205260409020546001600160a01b0316610dcb57604051634f0ae43b60e11b815260040160405180910390fd5b604051806080016040528083815260200160ca60008581526020019081526020016000206001018054610dfd90612020565b80601f0160208091040260200160405190810160405280929190818152602001828054610e2990612020565b8015610e765780601f10610e4b57610100808354040283529160200191610e76565b820191906000526020600020905b815481529060010190602001808311610e5957829003601f168201915b5050505050815260200160ca6000858152602001908152602001600020600201548152602001610ea5846109a0565b905292915050565b610eb5611b99565b61068082336115a1565b60606000600160c954610ed29190612108565b905080831115610f16576040805160008082526020820190925290610f0d565b610efa611b99565b815260200190600190039081610ef25790505b50915050610680565b6000610f228483612108565b905084811115610f2f5750835b60008167ffffffffffffffff811115610f4a57610f4a611d97565b604051908082528060200260200182016040528015610f8357816020015b610f70611b99565b815260200190600190039081610f685790505b50905060005b82811015610fe4576000610f9d82886122c0565b610fa89060016122c0565b9050610fb381610d8e565b838381518110610fc557610fc561211b565b6020026020010181905250508080610fdc90612148565b915050610f89565b5095945050505050565b600054610100900460ff161580801561100e5750600054600160ff909116105b806110285750303b158015611028575060005460ff166001145b61108b5760405162461bcd60e51b815260206004820152602e60248201527f496e697469616c697a61626c653a20636f6e747261637420697320616c72656160448201526d191e481a5b9a5d1a585b1a5e995960921b60648201526084016106ce565b6000805460ff1916600117905580156110ae576000805461ff0019166101001790555b6110b66118da565b6110be611909565b600160c955801561076b576000805461ff0019169055604051600181527f7f26b83ff96e1f2b6a682f133852f6798a09c465da95921460cefb384740249890602001610827565b606061111484848460006111da565b90505b9392505050565b61112661182e565b6001600160a01b03811661114d5760405163ddbadd5f60e01b815260040160405180910390fd5b6001600160a01b038116600090815260cb602052604090205460ff166111895760405160016220ed5760e21b0319815260040160405180910390fd5b6001600160a01b038116600081815260cb6020908152604091829020805460ff1916905590519182527ff580004af0ac6037b74990f19cc58a21e293bdfa31495f8dccfdfaa8216b17a69101610827565b600084815260ca60205260409020546060906001600160a01b031661121257604051634f0ae43b60e11b815260040160405180910390fd5b600085815260ca602052604090206003015480158061123057508084115b1561127b576040805160008082526020820190925290611272565b604080518082019091526000808252602082015281526020019060019003908161124b5790505b5091505061145a565b60006112878583612108565b9050858111156112945750845b60008167ffffffffffffffff8111156112af576112af611d97565b6040519080825280602002602001820160405280156112f457816020015b60408051808201909152600080825260208201528152602001906001900390816112cd5790505b509050600085600181111561130b5761130b6122d3565b036113c05760005b828110156113ba57600089815260ca602052604090206003018188611339600188612108565b6113439190612108565b61134d9190612108565b8154811061135d5761135d61211b565b90600052602060002090600202016040518060400160405290816000820154815260200160018201548152505082828151811061139c5761139c61211b565b602002602001018190525080806113b290612148565b915050611313565b50611455565b60005b8281101561145357600089815260ca602052604090206003016113e682896122c0565b815481106113f6576113f661211b565b9060005260206000209060020201604051806040016040529081600082015481526020016001820154815250508282815181106114355761143561211b565b6020026020010181905250808061144b90612148565b9150506113c3565b505b925050505b949350505050565b6001600160a01b0382166114895760405163ddbadd5f60e01b815260040160405180910390fd5b6000826001600160a01b0316638da5cb5b6040518163ffffffff1660e01b8152600401602060405180830381865afa1580156114c9573d6000803e3d6000fd5b505050506040513d601f19601f820116820180604052508101906114ed91906122e9565b90506001600160a01b0381166115165760405163566225c360e01b815260040160405180910390fd5b6001600160a01b038116331461153f5760405163f0d59a1360e01b815260040160405180910390fd5b6001600160a01b038316600081815260cc6020908152604091829020859055815192835282018490527fb1e9a30ad0a4cd2e52c1342b823fc38f299ff92bfac90b7c0f012bff5e4693279101610c85565b6060610680826103e86000806111da565b6115a9611b99565b60015b60c95481101561161757600081815260ca60205260409020546001600160a01b0384811691161480156115ef5750600081815260ca602052604090206002015484145b15611605576115fd81610d8e565b915050610680565b8061160f81612148565b9150506115ac565b50604051634f0ae43b60e11b815260040160405180910390fd5b606061111783836000806111da565b61164861182e565b6001600160a01b0381166116ad5760405162461bcd60e51b815260206004820152602660248201527f4f776e61626c653a206e6577206f776e657220697320746865207a65726f206160448201526564647265737360d01b60648201526084016106ce565b61076b81611888565b61076b61182e565b7f4910fdfa16fed3260ed0e7147f7cc6da11a60208b5b9406d12a635614ffd91435460ff16156116f6576116f183611930565b505050565b826001600160a01b03166352d1902d6040518163ffffffff1660e01b8152600401602060405180830381865afa925050508015611750575060408051601f3d908101601f1916820190925261174d91810190612306565b60015b6117b35760405162461bcd60e51b815260206004820152602e60248201527f45524331393637557067726164653a206e657720696d706c656d656e7461746960448201526d6f6e206973206e6f74205555505360901b60648201526084016106ce565b60008051602061239a83398151915281146118225760405162461bcd60e51b815260206004820152602960248201527f45524331393637557067726164653a20756e737570706f727465642070726f786044820152681a58589b195555525160ba1b60648201526084016106ce565b506116f18383836119cc565b6033546001600160a01b03163314610d8c5760405162461bcd60e51b815260206004820181905260248201527f4f776e61626c653a2063616c6c6572206973206e6f7420746865206f776e657260448201526064016106ce565b603380546001600160a01b038381166001600160a01b0319831681179093556040519116919082907f8be0079c531659141344cd1fd0a4f28419497f9722a3daafe3b4186f6b6457e090600090a35050565b600054610100900460ff166119015760405162461bcd60e51b81526004016106ce9061231f565b610d8c6119f7565b600054610100900460ff16610d8c5760405162461bcd60e51b81526004016106ce9061231f565b6001600160a01b0381163b61199d5760405162461bcd60e51b815260206004820152602d60248201527f455243313936373a206e657720696d706c656d656e746174696f6e206973206e60448201526c1bdd08184818dbdb9d1c9858dd609a1b60648201526084016106ce565b60008051602061239a83398151915280546001600160a01b0319166001600160a01b0392909216919091179055565b6119d583611a27565b6000825111806119e25750805b156116f1576119f18383611a67565b50505050565b600054610100900460ff16611a1e5760405162461bcd60e51b81526004016106ce9061231f565b610d8c33611888565b611a3081611930565b6040516001600160a01b038216907fbc7cd75a20ee27fd9adebab32041f755214dbc6bffa90cc0225b39da2e5c2d3b90600090a250565b60606001600160a01b0383163b611acf5760405162461bcd60e51b815260206004820152602660248201527f416464726573733a2064656c65676174652063616c6c20746f206e6f6e2d636f6044820152651b9d1c9858dd60d21b60648201526084016106ce565b600080846001600160a01b031684604051611aea919061236a565b600060405180830381855af49150503d8060008114611b25576040519150601f19603f3d011682016040523d82523d6000602084013e611b2a565b606091505b5091509150611b5282826040518060600160405280602781526020016123ba60279139611b5b565b95945050505050565b60608315611b6a575081611117565b6111178383815115611b7f5781518083602001fd5b8060405162461bcd60e51b81526004016106ce9190612386565b6040518060800160405280600081526020016060815260200160008019168152602001611bd9604051806040016040528060008152602001600081525090565b905290565b600060208284031215611bf057600080fd5b5035919050565b60005b83811015611c12578181015183820152602001611bfa565b50506000910152565b60008151808452611c33816020860160208601611bf7565b601f01601f19169290920160200192915050565b6001600160a01b0384168152606060208201819052600090611c6b90830185611c1b565b9050826040830152949350505050565b6001600160a01b038116811461076b57600080fd5b600060208284031215611ca257600080fd5b813561111781611c7b565b805182526000602082015160a06020850152611ccc60a0850182611c1b565b9050604083015160408501526060830151611cf4606086018280518252602090810151910152565b509392505050565b6000602080830181845280855180835260408601915060408160051b870101925083870160005b82811015611d5157603f19888603018452611d3f858351611cad565b94509285019290850190600101611d23565b5092979650505050505050565b60008060408385031215611d7157600080fd5b50508035926020909101359150565b815181526020808301519082015260408101610680565b634e487b7160e01b600052604160045260246000fd5b60008060408385031215611dc057600080fd5b8235611dcb81611c7b565b9150602083013567ffffffffffffffff80821115611de857600080fd5b818501915085601f830112611dfc57600080fd5b813581811115611e0e57611e0e611d97565b604051601f8201601f19908116603f01168101908382118183101715611e3657611e36611d97565b81604052828152886020848701011115611e4f57600080fd5b8260208601602083013760006020848301015280955050505050509250929050565b600080600060408486031215611e8657600080fd5b833567ffffffffffffffff80821115611e9e57600080fd5b818601915086601f830112611eb257600080fd5b813581811115611ec157600080fd5b876020828501011115611ed357600080fd5b6020928301989097509590910135949350505050565b6020815260006111176020830184611cad565b600080600060608486031215611f1157600080fd5b505081359360208301359350604090920135919050565b602080825282518282018190526000919060409081850190868401855b82811015611f7257611f6284835180518252602090810151910152565b9284019290850190600101611f45565b5091979650505050505050565b60008060008060808587031215611f9557600080fd5b843593506020850135925060408501359150606085013560028110611fb957600080fd5b939692955090935050565b60008060408385031215611fd757600080fd5b8235611fe281611c7b565b946020939093013593505050565b6000806040838503121561200357600080fd5b82359150602083013561201581611c7b565b809150509250929050565b600181811c9082168061203457607f821691505b60208210810361205457634e487b7160e01b600052602260045260246000fd5b50919050565b6020808252602c908201527f46756e6374696f6e206d7573742062652063616c6c6564207468726f7567682060408201526b19195b1959d85d1958d85b1b60a21b606082015260800190565b6020808252602c908201527f46756e6374696f6e206d7573742062652063616c6c6564207468726f7567682060408201526b6163746976652070726f787960a01b606082015260800190565b634e487b7160e01b600052601160045260246000fd5b81810381811115610680576106806120f2565b634e487b7160e01b600052603260045260246000fd5b600081612140576121406120f2565b506000190190565b60006001820161215a5761215a6120f2565b5060010190565b601f8211156116f157600081815260208120601f850160051c810160208610156121885750805b601f850160051c820191505b818110156121a757828155600101612194565b505050505050565b67ffffffffffffffff8311156121c7576121c7611d97565b6121db836121d58354612020565b83612161565b6000601f84116001811461220f57600085156121f75750838201355b600019600387901b1c1916600186901b178355612269565b600083815260209020601f19861690835b828110156122405786850135825560209485019460019092019101612220565b508682101561225d5760001960f88860031b161c19848701351681555b505060018560011b0183555b5050505050565b85815260806020820152836080820152838560a0830137600060a085830181019190915260408201939093526001600160a01b03919091166060820152601f909201601f19169091010192915050565b80820180821115610680576106806120f2565b634e487b7160e01b600052602160045260246000fd5b6000602082840312156122fb57600080fd5b815161111781611c7b565b60006020828403121561231857600080fd5b5051919050565b6020808252602b908201527f496e697469616c697a61626c653a20636f6e7472616374206973206e6f74206960408201526a6e697469616c697a696e6760a81b606082015260800190565b6000825161237c818460208701611bf7565b9190910192915050565b6020815260006111176020830184611c1b56fe360894a13ba1a3210667c828492db98dca3e2076cc3735a920a3ca505d382bbc416464726573733a206c6f772d6c6576656c2064656c65676174652063616c6c206661696c6564a26469706673582212209f760e78b19d4b7fa9c7e479d95ec76fd90203d83dda37346c02416891160a5064736f6c63430008110033",
    "linkReferences": {},
    "deployedLinkReferences": {}
}